{
  "contractName": "MyBank",
  "abi": [
    {
      "anonymous": false,
      "inputs": [
        {
          "indexed": false,
          "name": "accountAddress",
          "type": "uint256"
        },
        {
          "indexed": false,
          "name": "amount",
          "type": "uint256"
        }
      ],
      "name": "DepositMade",
      "type": "event",
      "signature": "0x0793979a87d9a8a3698d9afc4736042bcc2a41b10151127638dcdef36ede4ce1"
    },
    {
      "anonymous": false,
      "inputs": [
        {
          "indexed": false,
          "name": "accountAddress",
          "type": "uint256"
        },
        {
          "indexed": false,
          "name": "amount",
          "type": "uint256"
        }
      ],
      "name": "WithdrawMade",
      "type": "event",
      "signature": "0x2bd0fe34d8c8ee22c570c925d9d764479c05a7e5a3d18d2f9189a30025682bee"
    },
    {
      "constant": false,
      "inputs": [
        {
          "name": "ownerId",
          "type": "uint256"
        },
        {
          "name": "amount",
          "type": "uint256"
        }
      ],
      "name": "enroll",
      "outputs": [
        {
          "name": "",
          "type": "uint256"
        }
      ],
      "payable": false,
      "stateMutability": "nonpayable",
      "type": "function",
      "signature": "0xa599ef65"
    },
    {
      "constant": false,
      "inputs": [
        {
          "name": "ownerId",
          "type": "uint256"
        },
        {
          "name": "amount",
          "type": "uint256"
        }
      ],
      "name": "deposit",
      "outputs": [
        {
          "name": "",
          "type": "uint256"
        }
      ],
      "payable": true,
      "stateMutability": "payable",
      "type": "function",
      "signature": "0xe2bbb158"
    },
    {
      "constant": false,
      "inputs": [
        {
          "name": "ownerId",
          "type": "uint256"
        },
        {
          "name": "withdrawAmount",
          "type": "uint256"
        }
      ],
      "name": "withdraw",
      "outputs": [],
      "payable": false,
      "stateMutability": "nonpayable",
      "type": "function",
      "signature": "0x441a3e70"
    },
    {
      "constant": true,
      "inputs": [
        {
          "name": "ownerId",
          "type": "uint256"
        }
      ],
      "name": "balance",
      "outputs": [
        {
          "name": "",
          "type": "uint256"
        }
      ],
      "payable": false,
      "stateMutability": "view",
      "type": "function",
      "signature": "0x47bb89f0"
    },
    {
      "constant": true,
      "inputs": [],
      "name": "customerCount",
      "outputs": [
        {
          "name": "",
          "type": "uint256"
        }
      ],
      "payable": false,
      "stateMutability": "view",
      "type": "function",
      "signature": "0x9757e8a3"
    }
  ],
  "bytecode": "0x608060405234801561001057600080fd5b50610386806100206000396000f3fe60806040526004361061006d576000357c0100000000000000000000000000000000000000000000000000000000900463ffffffff168063441a3e701461007257806347bb89f0146100b75780639757e8a314610106578063a599ef6514610131578063e2bbb1581461018a575b600080fd5b34801561007e57600080fd5b506100b56004803603604081101561009557600080fd5b8101908080359060200190929190803590602001909291905050506101d6565b005b3480156100c357600080fd5b506100f0600480360360208110156100da57600080fd5b810190808035906020019092919050505061026a565b6040518082815260200191505060405180910390f35b34801561011257600080fd5b5061011b610287565b6040518082815260200191505060405180910390f35b34801561013d57600080fd5b506101746004803603604081101561015457600080fd5b810190808035906020019092919080359060200190929190505050610293565b6040518082815260200191505060405180910390f35b6101c0600480360360408110156101a057600080fd5b8101908080359060200190929190803590602001909291905050506102df565b6040518082815260200191505060405180910390f35b600160008381526020019081526020016000205481111515610266578060016000848152602001908152602001600020600082825403925050819055507f2bd0fe34d8c8ee22c570c925d9d764479c05a7e5a3d18d2f9189a30025682bee826001600085815260200190815260200160002054604051808381526020018281526020019250505060405180910390a15b5050565b600060016000838152602001908152602001600020549050919050565b60008080549050905090565b6000816001600085815260200190815260200160002081905550600083908060018154018082558091505090600182039060005260206000200160009091929091909150555092915050565b60008160016000858152602001908152602001600020600082825401925050819055507f0793979a87d9a8a3698d9afc4736042bcc2a41b10151127638dcdef36ede4ce1836001600086815260200190815260200160002054604051808381526020018281526020019250505060405180910390a19291505056fea165627a7a72305820871193be6eb074f7e7f0aede0d65c3d54e66d921929332af672589082cbc9b590029",
  "source": "pragma solidity ^0.5.0;\n\ncontract MyBank {\n    \n    uint[] owners;\n    mapping (uint => uint) private balances;\n    \n    //Write an event regarding the deposit and withdrawal about the address and the amount\n    event DepositMade(uint accountAddress, uint amount);\n    event WithdrawMade(uint accountAddress, uint amount);\n    \n    //Enroll new customers\n    function enroll(uint ownerId, uint amount) public returns (uint) {\n        balances[ownerId] = amount;\n        owners.push(ownerId);\n        \n    }\n       \n    //Deposit money into the bank account and emit the event with new balance\n    function deposit(uint ownerId, uint amount) public payable returns (uint ) {\n        balances[ownerId] += amount;\n        emit DepositMade(ownerId, balances[ownerId]);\n    }\n\n    //Withdraw the amount and emit the event with new balance\n    function withdraw(uint ownerId, uint withdrawAmount) public {\n        if(withdrawAmount <= balances[ownerId]){\n            balances[ownerId] -= withdrawAmount;\n            emit WithdrawMade(ownerId, balances[ownerId]);\n        }\n    }\n\n    //Return the current balance of the user \n    function balance(uint ownerId) public view returns (uint) {\n        return balances[ownerId];\n    }\n\n    //Customer count will return the total number of users\n    function customerCount() public view returns (uint) {\n        return owners.length;\n    }\n\n}\n",
  "sourcePath": "/home/sravani/Bank/contracts/MyBank.sol",
  "compiler": {
    "name": "solc",
    "version": "0.5.0+commit.1d4f565a.Emscripten.clang"
  },
  "schemaVersion": "3.0.1",
  "updatedAt": "2019-02-12T01:02:59.284Z",
  "devdoc": {
    "methods": {}
  },
  "userdoc": {
    "methods": {}
  }
}